{
  "contractName": "Voting",
  "abi": [
    {
      "inputs": [],
      "stateMutability": "nonpayable",
      "type": "constructor"
    },
    {
      "inputs": [
        {
          "internalType": "uint256",
          "name": "",
          "type": "uint256"
        }
      ],
      "name": "candidates",
      "outputs": [
        {
          "internalType": "uint256",
          "name": "id",
          "type": "uint256"
        },
        {
          "internalType": "string",
          "name": "name",
          "type": "string"
        },
        {
          "internalType": "uint256",
          "name": "voteCount",
          "type": "uint256"
        }
      ],
      "stateMutability": "view",
      "type": "function"
    },
    {
      "inputs": [],
      "name": "candidatesCount",
      "outputs": [
        {
          "internalType": "uint256",
          "name": "",
          "type": "uint256"
        }
      ],
      "stateMutability": "view",
      "type": "function"
    },
    {
      "inputs": [
        {
          "internalType": "address",
          "name": "",
          "type": "address"
        }
      ],
      "name": "hasVoted",
      "outputs": [
        {
          "internalType": "bool",
          "name": "",
          "type": "bool"
        }
      ],
      "stateMutability": "view",
      "type": "function"
    },
    {
      "inputs": [
        {
          "internalType": "uint256",
          "name": "_candidateId",
          "type": "uint256"
        }
      ],
      "name": "vote",
      "outputs": [],
      "stateMutability": "nonpayable",
      "type": "function"
    }
  ],
  "bytecode": "0x608060405234801562000010575f80fd5b50620000576040518060400160405280600581526020017f416c696365000000000000000000000000000000000000000000000000000000815250620000a360201b60201c565b6200009d6040518060400160405280600381526020017f426f620000000000000000000000000000000000000000000000000000000000815250620000a360201b60201c565b620004dc565b604051806060016040528060025481526020018281526020015f8152505f8060025481526020019081526020015f205f820151815f01556020820151816001019081620000f191906200037f565b506040820151816002015590505060025f815480929190620001139062000490565b919050555050565b5f81519050919050565b7f4e487b71000000000000000000000000000000000000000000000000000000005f52604160045260245ffd5b7f4e487b71000000000000000000000000000000000000000000000000000000005f52602260045260245ffd5b5f60028204905060018216806200019757607f821691505b602082108103620001ad57620001ac62000152565b5b50919050565b5f819050815f5260205f209050919050565b5f6020601f8301049050919050565b5f82821b905092915050565b5f60088302620002117fffffffffffffffffffffffffffffffffffffffffffffffffffffffffffffffff82620001d4565b6200021d8683620001d4565b95508019841693508086168417925050509392505050565b5f819050919050565b5f819050919050565b5f62000267620002616200025b8462000235565b6200023e565b62000235565b9050919050565b5f819050919050565b620002828362000247565b6200029a62000291826200026e565b848454620001e0565b825550505050565b5f90565b620002b0620002a2565b620002bd81848462000277565b505050565b5b81811015620002e457620002d85f82620002a6565b600181019050620002c3565b5050565b601f8211156200033357620002fd81620001b3565b6200030884620001c5565b8101602085101562000318578190505b620003306200032785620001c5565b830182620002c2565b50505b505050565b5f82821c905092915050565b5f620003555f198460080262000338565b1980831691505092915050565b5f6200036f838362000344565b9150826002028217905092915050565b6200038a826200011b565b67ffffffffffffffff811115620003a657620003a562000125565b5b620003b282546200017f565b620003bf828285620002e8565b5f60209050601f831160018114620003f5575f8415620003e0578287015190505b620003ec858262000362565b8655506200045b565b601f1984166200040586620001b3565b5f5b828110156200042e5784890151825560018201915060208501945060208101905062000407565b868310156200044e57848901516200044a601f89168262000344565b8355505b6001600288020188555050505b505050505050565b7f4e487b71000000000000000000000000000000000000000000000000000000005f52601160045260245ffd5b5f6200049c8262000235565b91507fffffffffffffffffffffffffffffffffffffffffffffffffffffffffffffffff8203620004d157620004d062000463565b5b600182019050919050565b6106f080620004ea5f395ff3fe608060405234801561000f575f80fd5b506004361061004a575f3560e01c80630121b93f1461004e57806309eef43e1461006a5780632d35a8a21461009a5780633477ee2e146100b8575b5f80fd5b61006860048036038101906100639190610348565b6100ea565b005b610084600480360381019061007f91906103cd565b610243565b6040516100919190610412565b60405180910390f35b6100a2610260565b6040516100af919061043a565b60405180910390f35b6100d260048036038101906100cd9190610348565b610266565b6040516100e1939291906104dd565b60405180910390f35b60015f3373ffffffffffffffffffffffffffffffffffffffff1673ffffffffffffffffffffffffffffffffffffffff1681526020019081526020015f205f9054906101000a900460ff1615610174576040517f08c379a000000000000000000000000000000000000000000000000000000000815260040161016b90610563565b60405180910390fd5b6002548110801561018557505f8110155b6101c4576040517f08c379a00000000000000000000000000000000000000000000000000000000081526004016101bb906105cb565b60405180910390fd5b6001805f3373ffffffffffffffffffffffffffffffffffffffff1673ffffffffffffffffffffffffffffffffffffffff1681526020019081526020015f205f6101000a81548160ff0219169083151502179055505f808281526020019081526020015f206002015f81548092919061023b90610616565b919050555050565b6001602052805f5260405f205f915054906101000a900460ff1681565b60025481565b5f602052805f5260405f205f91509050805f01549080600101805461028a9061068a565b80601f01602080910402602001604051908101604052809291908181526020018280546102b69061068a565b80156103015780601f106102d857610100808354040283529160200191610301565b820191905f5260205f20905b8154815290600101906020018083116102e457829003601f168201915b5050505050908060020154905083565b5f80fd5b5f819050919050565b61032781610315565b8114610331575f80fd5b50565b5f813590506103428161031e565b92915050565b5f6020828403121561035d5761035c610311565b5b5f61036a84828501610334565b91505092915050565b5f73ffffffffffffffffffffffffffffffffffffffff82169050919050565b5f61039c82610373565b9050919050565b6103ac81610392565b81146103b6575f80fd5b50565b5f813590506103c7816103a3565b92915050565b5f602082840312156103e2576103e1610311565b5b5f6103ef848285016103b9565b91505092915050565b5f8115159050919050565b61040c816103f8565b82525050565b5f6020820190506104255f830184610403565b92915050565b61043481610315565b82525050565b5f60208201905061044d5f83018461042b565b92915050565b5f81519050919050565b5f82825260208201905092915050565b5f5b8381101561048a57808201518184015260208101905061046f565b5f8484015250505050565b5f601f19601f8301169050919050565b5f6104af82610453565b6104b9818561045d565b93506104c981856020860161046d565b6104d281610495565b840191505092915050565b5f6060820190506104f05f83018661042b565b818103602083015261050281856104a5565b9050610511604083018461042b565b949350505050565b7f596f75206861766520616c726561647920766f7465642e0000000000000000005f82015250565b5f61054d60178361045d565b915061055882610519565b602082019050919050565b5f6020820190508181035f83015261057a81610541565b9050919050565b7f496e76616c69642063616e6469646174652049442e00000000000000000000005f82015250565b5f6105b560158361045d565b91506105c082610581565b602082019050919050565b5f6020820190508181035f8301526105e2816105a9565b9050919050565b7f4e487b71000000000000000000000000000000000000000000000000000000005f52601160045260245ffd5b5f61062082610315565b91507fffffffffffffffffffffffffffffffffffffffffffffffffffffffffffffffff8203610652576106516105e9565b5b600182019050919050565b7f4e487b71000000000000000000000000000000000000000000000000000000005f52602260045260245ffd5b5f60028204905060018216806106a157607f821691505b6020821081036106b4576106b361065d565b5b5091905056fea2646970667358221220249be8329e98e5ee7ed5ee51b2b39af0228507cf394e3e0d88a5916bc48f5da764736f6c63430008150033",
  "immutableReferences": {},
  "source": "// SPDX-License-Identifier: MIT\r\npragma solidity ^0.8.0;\r\n\r\ncontract Voting {\r\n    struct Candidate {\r\n        uint id;\r\n        string name;\r\n        uint voteCount;\r\n    }\r\n\r\n    mapping(uint => Candidate) public candidates;\r\n    mapping(address => bool) public hasVoted;\r\n    uint public candidatesCount;\r\n\r\n    constructor() {\r\n        addCandidate(\"Alice\");\r\n        addCandidate(\"Bob\");\r\n    }\r\n\r\n    function addCandidate(string memory _name) private {\r\n        candidates[candidatesCount] = Candidate(candidatesCount, _name, 0);\r\n        candidatesCount++;\r\n    }\r\n\r\n    function vote(uint _candidateId) public {\r\n        require(!hasVoted[msg.sender], \"You have already voted.\");\r\n        require(_candidateId < candidatesCount && _candidateId >= 0, \"Invalid candidate ID.\");\r\n\r\n        hasVoted[msg.sender] = true;\r\n        candidates[_candidateId].voteCount++;\r\n    }\r\n}\r\n",
  "sourcePath": "C:\\Users\\Dell\\Desktop\\voting-system\\VotingDApp\\contracts\\Voting.sol",
  "compiler": {
    "name": "solc",
    "version": "0.8.21+commit.d9974bed.Emscripten.clang"
  },
  "schemaVersion": "3.4.16",
  "updatedAt": "2024-10-04T08:09:16.025Z",
  "devdoc": {
    "kind": "dev",
    "methods": {},
    "version": 1
  },
  "userdoc": {
    "kind": "user",
    "methods": {},
    "version": 1
  }
}