{
  "contractName": "Voting",
  "abi": [
    {
      "inputs": [],
      "stateMutability": "nonpayable",
      "type": "constructor"
    },
    {
      "anonymous": false,
      "inputs": [
        {
          "indexed": true,
          "internalType": "address",
          "name": "voter",
          "type": "address"
        },
        {
          "indexed": true,
          "internalType": "uint256",
          "name": "candidateId",
          "type": "uint256"
        }
      ],
      "name": "Voted",
      "type": "event"
    },
    {
      "inputs": [
        {
          "internalType": "uint256",
          "name": "",
          "type": "uint256"
        }
      ],
      "name": "candidates",
      "outputs": [
        {
          "internalType": "uint256",
          "name": "id",
          "type": "uint256"
        },
        {
          "internalType": "string",
          "name": "name",
          "type": "string"
        },
        {
          "internalType": "uint256",
          "name": "voteCount",
          "type": "uint256"
        }
      ],
      "stateMutability": "view",
      "type": "function",
      "constant": true
    },
    {
      "inputs": [],
      "name": "candidatesCount",
      "outputs": [
        {
          "internalType": "uint256",
          "name": "",
          "type": "uint256"
        }
      ],
      "stateMutability": "view",
      "type": "function",
      "constant": true
    },
    {
      "inputs": [
        {
          "internalType": "address",
          "name": "",
          "type": "address"
        }
      ],
      "name": "hasVoted",
      "outputs": [
        {
          "internalType": "bool",
          "name": "",
          "type": "bool"
        }
      ],
      "stateMutability": "view",
      "type": "function",
      "constant": true
    },
    {
      "inputs": [
        {
          "internalType": "string",
          "name": "_name",
          "type": "string"
        }
      ],
      "name": "addCandidate",
      "outputs": [],
      "stateMutability": "nonpayable",
      "type": "function"
    },
    {
      "inputs": [
        {
          "internalType": "uint256",
          "name": "_candidateId",
          "type": "uint256"
        }
      ],
      "name": "vote",
      "outputs": [],
      "stateMutability": "nonpayable",
      "type": "function"
    },
    {
      "inputs": [
        {
          "internalType": "uint256",
          "name": "_candidateId",
          "type": "uint256"
        }
      ],
      "name": "candidateExists",
      "outputs": [
        {
          "internalType": "bool",
          "name": "",
          "type": "bool"
        }
      ],
      "stateMutability": "view",
      "type": "function",
      "constant": true
    },
    {
      "inputs": [
        {
          "internalType": "uint256",
          "name": "_candidateId",
          "type": "uint256"
        }
      ],
      "name": "getCandidate",
      "outputs": [
        {
          "internalType": "string",
          "name": "name",
          "type": "string"
        },
        {
          "internalType": "uint256",
          "name": "voteCount",
          "type": "uint256"
        }
      ],
      "stateMutability": "view",
      "type": "function",
      "constant": true
    },
    {
      "inputs": [],
      "name": "getAllCandidates",
      "outputs": [
        {
          "components": [
            {
              "internalType": "uint256",
              "name": "id",
              "type": "uint256"
            },
            {
              "internalType": "string",
              "name": "name",
              "type": "string"
            },
            {
              "internalType": "uint256",
              "name": "voteCount",
              "type": "uint256"
            }
          ],
          "internalType": "struct Voting.Candidate[]",
          "name": "",
          "type": "tuple[]"
        }
      ],
      "stateMutability": "view",
      "type": "function",
      "constant": true
    }
  ],
  "bytecode": "0x60806040523480156200001157600080fd5b50620000616040518060400160405280600581526020017f416c696365000000000000000000000000000000000000000000000000000000815250620000b6640100000000026401000000009004565b620000b06040518060400160405280600381526020017f426f620000000000000000000000000000000000000000000000000000000000815250620000b6640100000000026401000000009004565b6200030b565b6040805160608101825260025480825260208083018581526000848601819052928352908290529290208151815591519091906001820190620000fa9082620001f7565b506040919091015160029182015580549060006200011883620002ca565b919050555050565b7f4e487b7100000000000000000000000000000000000000000000000000000000600052604160045260246000fd5b6002810460018216806200016457607f821691505b6020821081036200019e577f4e487b7100000000000000000000000000000000000000000000000000000000600052602260045260246000fd5b50919050565b601f821115620001f2576000818152602081206020601f86010481016020861015620001cd5750805b6020601f860104820191505b81811015620001ee57828155600101620001d9565b5050505b505050565b815167ffffffffffffffff81111562000214576200021462000120565b6200022c816200022584546200014f565b84620001a4565b602080601f8311600181146200026857600084156200024b5750858301515b60028086026008870290910a6000190419821617865550620001ee565b600085815260208120601f198616915b82811015620002995788860151825594840194600190910190840162000278565b5085821015620002ba57878501516008601f88160260020a60001904191681555b5050505050600202600101905550565b60006001820162000304577f4e487b7100000000000000000000000000000000000000000000000000000000600052601160045260246000fd5b5060010190565b610aa8806200031b6000396000f3fe608060405234801561001057600080fd5b50600436106100a5576000357c0100000000000000000000000000000000000000000000000000000000900480633477ee2e116100785780633477ee2e1461012357806335b8e82014610145578063462e91ec146101665780634a3b88771461017957600080fd5b80630121b93f146100aa57806309eef43e146100bf5780632d35a8a2146100f75780632e6997fe1461010e575b600080fd5b6100bd6100b83660046106b4565b61018e565b005b6100e26100cd3660046106cd565b60016020526000908152604090205460ff1681565b60405190151581526020015b60405180910390f35b61010060025481565b6040519081526020016100ee565b6101166102e2565b6040516100ee9190610750565b6101366101313660046106b4565b610459565b6040516100ee939291906107ce565b6101586101533660046106b4565b610504565b6040516100ee9291906107f7565b6100bd610174366004610832565b61064e565b6100e26101873660046106b4565b6002541190565b3360009081526001602052604090205460ff161561020d576040517f08c379a000000000000000000000000000000000000000000000000000000000815260206004820152601760248201527f596f75206861766520616c726561647920766f7465642e00000000000000000060448201526064015b60405180910390fd5b6002548110610278576040517f08c379a000000000000000000000000000000000000000000000000000000000815260206004820152601560248201527f496e76616c69642063616e6469646174652049442e00000000000000000000006044820152606401610204565b336000908152600160208181526040808420805460ff191690931790925583835282905281206002018054916102ad836108e3565b9091555050604051819033907f4d99b957a2bc29a30ebd96a7be8e68fe50a3c701db28a91436490b7d53870ca490600090a350565b6060600060025467ffffffffffffffff81111561030157610301610819565b60405190808252806020026020018201604052801561035657816020015b61034360405180606001604052806000815260200160608152602001600081525090565b81526020019060019003908161031f5790505b50905060005b60025481101561045357600081815260208181526040918290208251606081019093528054835260018101805491928401916103979061090d565b80601f01602080910402602001604051908101604052809291908181526020018280546103c39061090d565b80156104105780601f106103e557610100808354040283529160200191610410565b820191906000526020600020905b8154815290600101906020018083116103f357829003601f168201915b5050505050815260200160028201548152505082828151811061043557610435610944565b6020026020010181905250808061044b906108e3565b91505061035c565b50919050565b6000602081905290815260409020805460018201805491929161047b9061090d565b80601f01602080910402602001604051908101604052809291908181526020018280546104a79061090d565b80156104f45780601f106104c9576101008083540402835291602001916104f4565b820191906000526020600020905b8154815290600101906020018083116104d757829003601f168201915b5050505050908060020154905083565b606060006002548310610573576040517f08c379a000000000000000000000000000000000000000000000000000000000815260206004820152601560248201527f496e76616c69642063616e6469646174652049442e00000000000000000000006044820152606401610204565b6000806000858152602001908152602001600020604051806060016040529081600082015481526020016001820180546105ac9061090d565b80601f01602080910402602001604051908101604052809291908181526020018280546105d89061090d565b80156106255780601f106105fa57610100808354040283529160200191610625565b820191906000526020600020905b81548152906001019060200180831161060857829003601f168201915b505050505081526020016002820154815250509050806020015181604001519250925050915091565b604080516060810182526002548082526020808301858152600084860181905292835290829052929020815181559151909190600182019061069090826109ac565b506040919091015160029182015580549060006106ac836108e3565b919050555050565b6000602082840312156106c657600080fd5b5035919050565b6000602082840312156106df57600080fd5b813573ffffffffffffffffffffffffffffffffffffffff8116811461070357600080fd5b9392505050565b6000815180845260005b8181101561073057602081850181015186830182015201610714565b506000602082860101526020601f19601f83011685010191505092915050565b60208082528251828201819052600091906040908185019080840286018301878501865b838110156107c057603f19898403018552815160608151855288820151818a8701526107a28287018261070a565b92890151958901959095525094870194925090860190600101610774565b509098975050505050505050565b8381526060602082015260006107e7606083018561070a565b9050826040830152949350505050565b60408152600061080a604083018561070a565b90508260208301529392505050565b60e060020a634e487b7102600052604160045260246000fd5b60006020828403121561084457600080fd5b813567ffffffffffffffff8082111561085c57600080fd5b818401915084601f83011261087057600080fd5b81358181111561088257610882610819565b604051601f8201601f19908116603f011681019083821181831017156108aa576108aa610819565b816040528281528760208487010111156108c357600080fd5b826020860160208301376000928101602001929092525095945050505050565b6000600182016109065760e060020a634e487b7102600052601160045260246000fd5b5060010190565b60028104600182168061092157607f821691505b6020821081036104535760e060020a634e487b7102600052602260045260246000fd5b60e060020a634e487b7102600052603260045260246000fd5b601f8211156109a7576000818152602081206020601f860104810160208610156109845750805b6020601f860104820191505b818110156109a357828155600101610990565b5050505b505050565b815167ffffffffffffffff8111156109c6576109c6610819565b6109da816109d4845461090d565b8461095d565b602080601f831160018114610a1357600084156109f75750858301515b60028086026008870290910a60001904198216178655506109a3565b600085815260208120601f198616915b82811015610a4257888601518255948401946001909101908401610a23565b5085821015610a6257878501516008601f88160260020a60001904191681555b505050505060020260010190555056fea26469706673582212200503543f4a97e5270b09eeb30f620a411f3db24bb66eee37078b12fe7a1ab64164736f6c63430008140033",
  "immutableReferences": {},
  "source": "// SPDX-License-Identifier: MIT\r\npragma solidity ^0.8.0;\r\n\r\ncontract Voting {\r\n    struct Candidate {\r\n        uint id;\r\n        string name;\r\n        uint voteCount;\r\n    }\r\n\r\n    mapping(uint => Candidate) public candidates;\r\n    mapping(address => bool) public hasVoted;\r\n    uint public candidatesCount;\r\n\r\n    constructor() {\r\n        addCandidate(\"Alice\");\r\n        addCandidate(\"Bob\");\r\n    }\r\n\r\n    function addCandidate(string memory _name) public {\r\n        candidates[candidatesCount] = Candidate(candidatesCount, _name, 0);\r\n        candidatesCount++;\r\n    }\r\n\r\n    event Voted(address indexed voter, uint indexed candidateId);\r\n\r\nfunction vote(uint _candidateId) public {\r\n    require(!hasVoted[msg.sender], \"You have already voted.\");\r\n    require(_candidateId < candidatesCount, \"Invalid candidate ID.\");\r\n\r\n    hasVoted[msg.sender] = true;\r\n    candidates[_candidateId].voteCount++;\r\n\r\n    emit Voted(msg.sender, _candidateId);\r\n}\r\n\r\n\r\n    function candidateExists(uint _candidateId) public view returns (bool) {\r\n        return _candidateId < candidatesCount;\r\n    }\r\n\r\n    function getCandidate(uint _candidateId) public view returns (string memory name, uint voteCount) {\r\n    require(_candidateId < candidatesCount, \"Invalid candidate ID.\");\r\n    Candidate memory candidate = candidates[_candidateId];\r\n    return (candidate.name, candidate.voteCount);\r\n    }\r\n\r\n    function getAllCandidates() public view returns (Candidate[] memory) {\r\n    Candidate[] memory allCandidates = new Candidate[](candidatesCount);\r\n    for (uint i = 0; i < candidatesCount; i++) {\r\n        allCandidates[i] = candidates[i];\r\n    }\r\n    return allCandidates; \r\n    }\r\n\r\n\r\n}\r\n",
  "sourcePath": "C:\\Users\\Dell\\Desktop\\voting-system\\VotingDApp\\contracts\\Votingold.sol",
  "compiler": {
    "name": "solc",
    "version": "0.8.20+commit.a1b79de6.Emscripten.clang"
  },
  "schemaVersion": "3.4.16",
  "updatedAt": "2024-10-09T06:30:41.581Z",
  "networkType": "ethereum",
  "devdoc": {
    "kind": "dev",
    "methods": {},
    "version": 1
  },
  "userdoc": {
    "kind": "user",
    "methods": {},
    "version": 1
  }
}